:020000040800F2
:1000000088DB01207902000825260008AD170008CA
:100010002126000849050008012900080000000009
:100020000000000000000000000000002D28000873
:1000300059050008000000002926000831280008A2
:10004000930200089302000893020008930200083C
:10005000930200089302000893020008930200082C
:10006000930200089302000893020008930200081C
:10007000930200089302000893020008930200080C
:100080009302000893020008930200080000000099
:1000900000000000000000000000000093020008C3
:1000A00093020008930200089302000893020008DC
:1000B00093020008930200089302000893020008CC
:1000C00093020008930200089302000893020008BC
:1000D0009302000893020008930200080000000049
:1000E0009302000893020008930200080000000039
:1000F0000000000000000000000000009302000863
:100100000000000093020008930200089302000818
:1001100000000000000000000000000000000000DF
:1001200093020008930200084D050008930200089E
:100130009302000800000000000000000000000022
:100140000000000000000000000000009302000812
:10015000930200089302000893020008930200082B
:100160009302000893020008000000000000000055
:10017000000000000000000000000000000000007F
:1001800000000000930200080000000000000000D2
:10019000930200089302000800F002F800F05CF8F7
:1001A0000AA090E8000C82448344AAF10107DA45D2
:1001B00001D100F051F8AFF2090EBAE80F0013F0C8
:1001C000010F18BFFB1A43F0010318477C0F04000E
:1001D0009C0F04000A444FF0000C10F8013B13F090
:1001E000070408BF10F8014B1D1108BF10F8015B90
:1001F000641E05D010F8016B641E01F8016BF9D183
:1002000013F0080F1EBF10F8014BAD1C0C1B09D1D9
:100210006D1E58BF01F801CBFAD505E014F8016B4B
:1002200001F8016B6D1EF9D59142D6D370470000DD
:100230000023002400250026103A28BF78C1FBD8EF
:10024000520728BF30C148BF0B6070471FB528F068
:10025000A7FA1FBD10B510BD00F043F91146FFF716
:10026000F5FF25F0A5F800F061F903B4FFF7F2FF00
:1002700003BC00F02FF900000948804709480047F7
:10028000FEE7FEE7FEE7FEE7FEE7FEE7FEE7FEE746
:10029000FEE7FEE704480549054A064B70470000A3
:1002A000ED2800089901000888D1012088DB012091
:1002B00088D3012088D3012053EA020C00F0698022
:1002C0002DE9F04B4FF00006002B1FBFB3FA83F56A
:1002D00003FA05F424FA05F65E4012BF1643B2FA9B
:1002E00082F502FA05F4C5F120051EBF22FA05FCCD
:1002F00044EA0C04203556EA044C4FEA144418BF73
:10030000641C4FF000084FF00009904271EB030CA1
:1003100039D3002919BFB1FA81F701FA07F6B0FA0B
:1003200080F700FA07F6C7F120071EBF20FA07FC86
:1003300046EA0C062037B6FBF4FCA7EB0507103F96
:1003400007F01F0BCBF120062CFA06F60CFA0BFB7C
:1003500044BFB3460026202FA4BF5E464FF0000BDB
:100360005BEA060C08BF4FF0010B19EB0B0948EBD9
:100370000608ABFB027C06FB02CC0BFB03CCC01BCC
:1003800071EB0C01C1E70B46024641464846BDE809
:10039000F08B13B5084318BF4FF0FF300146AFF3A1
:1003A0000080BDE81C40704702F0FF0343EA0322CF
:1003B00042EA024200F002B84FF000020429C0F005
:1003C000128010F0030C00F01B80CCF1040CBCF187
:1003D000020F18BF00F8012BA8BF20F8022BA1EBD9
:1003E0000C0100F00DB85FEAC17C24BF00F8012BBE
:1003F00000F8012B48BF00F8012B70474FF00002B6
:1004000000B5134694469646203922BFA0E80C500A
:10041000A0E80C50B1F12001BFF4F7AF090728BFE5
:10042000A0E80C5048BF0CC05DF804EB890028BF61
:1004300040F8042B08BF704748BF20F8022B11F08A
:10044000804F18BF00F8012B70470000000000002B
:1004500030B44FF0013C50F8042B51F8043BCCFA77
:1004600052F4D51A20D1FCB950F8042B51F8043BB2
:10047000CCFA52F4D51A17D1B4B950F8042B51F86C
:10048000043BCCFA52F4D51A0ED16CB950F8042BB7
:1004900051F8043BCCFA52F4D51A05D1002CDAD02D
:1004A00030BC4FF00000704729BAB1FA81F111F069
:1004B0001801D1F120008440F2D1CA40CB4012F0A3
:1004C000FF0213F0FF0330BCD01A7047704770472B
:1004D0007047000001491820ABBEFEE7260002006D
:1004E0007047754600F02CF8AE4605006946534645
:1004F00020F00700854618B020B5FFF7CBFEBDE819
:1005000020404FF000064FF000074FF000084FF07A
:10051000000BAC46ACE8C009ACE8C009ACE8C009C7
:10052000ACE8C00921F007018D46704710B50446BC
:10053000AFF300802046BDE81040FFF796BE0000F4
:1005400000487047B8060020FEE7000040F6B020E3
:10055000C2F2000000F050B870470000EFF31080C6
:1005600072B600BFFEE7000070B5866D044600F06D
:1005700013FB94F83510022928D105462068216C18
:10058000026822F016020260426922F08002426193
:1005900009B9A16C19B1016821F008010160016875
:1005A00021F00101016000BF20680068C00715D07C
:1005B00000F0F2FA401B0628F6D3202060650320E5
:1005C00084F83500002184F8341070BD8020606507
:1005D0000120002184F8341070BD00BFE06D3F2180
:1005E00001FA00F0B060012084F8350000200021FD
:1005F00084F8341070BD0000F0B581B004460020CE
:10060000009040F21800C2F200000268D4E91660BF
:1006100048F2B51337680821C1F64E33814039429C
:10062000A2FB03250CD0226813685B0708D513686A
:1006300023F004031360B160616D41F00101616555
:1006400001218140394208D022685269120604D53E
:10065000B160616D41F00201616504218140394260
:1006600008D022681268920704D5B160616D41F02C
:100670000401616510218140394217D02068026869
:10068000120713D5B16002680168520308D4C90586
:1006900008D4016821F008010160216C21B905E04E
:1006A00008033FD4216C09B120468847E16D202022
:1006B00000FA01F23A4241D020680368DB063DD5DA
:1006C000B26094F835300268052B1BD122F0160277
:1006D0000260426922F080024261226C0AB9A26C77
:1006E0001AB1026822F0080202603F208840B06020
:1006F000012084F83500216D0020002984F83400A1
:1007000052D157E00168520310D4C90512D40168D0
:1007100021F010010160012084F83500002084F8E8
:10072000340007E0A16C0029BED1BFE7080301D463
:10073000616C00E0E16B09B120468847606DC8B389
:10074000606DC0072ED0052084F835002068A90A06
:10075000026822F001020260009A01328A4200928D
:100760001AD80268D20717D0009A01328A42009242
:1007700012D80268D2070FD0009A01328A42009242
:100780000AD80268D20707D0009A01328A42009242
:1007900002D80268D207DFD1012084F8350000209A
:1007A00084F83400E16C29B1204601B0BDE8F04086
:1007B000084700BF01B0F0BD2DE9F041044600F04C
:1007C000EBF9ECB10546022084F8350000202168E1
:1007D00084F83400086820F0010008602168086887
:1007E000C00711D000F0D8F9401B0528F6D9032521
:1007F00020230320636584F83550BDE8F08100BFF5
:100800000120BDE8F08100BF086848F23F02CFF246
:100810001002D4E9013500EA020C04F10C0898E852
:10082000C10143EA0C032B431843D4E9072E30439C
:1008300038431043626A40EA0E00042A40EA080383
:100840001CD1206BD4E90A2E40EA0E001843086040
:100850004869BEF1000F20F0030040EA020040F0BA
:10086000040C11D0B8F5005F36D0B8F1000F45D1B7
:10087000022A46D0012A3BD032B942E00B604869D7
:1008800020F0070040EA020C01F0F8004AF6AB2223
:100890001038CAF6AA22A0FB02231A0948F6BC1394
:1008A000C0F602039A5C40F2FF335F284FF03F002E
:1008B000C1F814C021EA030100FA02F088BF043134
:1008C000C4E916128860002301250020636584F8BE
:1008D0003550BDE8F08100BF032AD5D8012540235B
:1008E0000120DFE802F0030E030500BF82E700BF2E
:1008F000AEF1C070B0FA80F0400904E0032A04D3DE
:10090000C2D1CEF300600028BED0012540230120D3
:10091000636584F83550BDE8F081000070B590F84B
:1009200034C0BCF1010F46D04FF0010C80F834C048
:10093000D0F858E090F835C0BCF1010F38D14FF035
:10094000020C80F835C04FF0000CC0F854C0D0F84D
:1009500000C08468056CC06DDCF80060402C26F493
:100960008026CCF80060CCF804300B4604BF134658
:100970000A463F2101FA00F0CCF80830CCF80C20F0
:10098000CEF80800DCF8000040F01600CCF80000BB
:100990002DB1DCF8000040F00800CCF80000DCF8D5
:1009A000000040F00100CCF80000002070BD00BF46
:1009B000002180F83410022070BD0000B0B504465C
:1009C00000F0EAF8054640F20000C2F200000078AC
:1009D000611C18BF044400BF00F0DEF8401BA042B9
:1009E000FAD3B0BD2DE9F04F82B000F13E4241F2A2
:1009F000000502F1FF77C4F20205072243F6004E1C
:100A00004FEAB726A84208BF0422C4F2010E042E02
:100A100038BF4FEAB7220125002600274FF0000813
:100A2000009208E008F101080437B8F1100F06F150
:100A3000020600F0A7800C6805FA08F914EA090F0D
:100A4000F0D0D1F804B003220BF0030CACF1010498
:100A5000B240012C6FEA020A10D88268CC6802EA20
:100A60000A02B440224382604268CBF3001422EAB7
:100A7000090204FA08F42243426005E0BCF1030FC6
:100A800002D14FF0030C20E0C2688C6802EA0A022F
:100A9000B4402243BCF1020FC26016D16FF00302D2
:100AA00002EA58020244D2F820C007F01C050F23C6
:100AB0000C69AB402CEA030304FA05F52B431362DF
:100AC000D1F804B001250BF0030C02680CFA06F310
:100AD00002EA0A021A431BF4403F0260A2D000223D
:100AE00043F644030192C4F202031A684FF6084C1D
:100AF00042F480421A601A68CFF6FF7C02F480420A
:100B00000192019A28F00302724452F80C3007F067
:100B10000C050F24AC40A343009C04FA05F52B43BD
:100B200042F80C30DEF808204B6842EA090543F62B
:100B30000C4CDC0258BF22EA0905CEF80850C4F27A
:100B4000010CDCF800209C0242EA090558BF22EAA9
:100B50000905CCF80050DEF804209C0342EA0905A0
:100B600058BF22EA0905CEF80450DEF80020DB0366
:100B700042EA090558BF22EA0905CEF800500125CE
:100B800050E700BF02B0BDE8F08F0000002A08BFA8
:100B900009048161704700004DF28010C2F201002B
:100BA0000068704740F200004DF28011C2F2000070
:100BB000C2F2010100780A68104408607047000022
:100BC00080B543F60040C4F20200016841F40071B0
:100BD0000160016841F480610160016841F4807145
:100BE0000160032000F088F80F2000F005F800F005
:100BF00027F8002080BD000070B540F20006C2F268
:100C0000000640F218013278C2F200014FF47A7304
:100C10000968B3FBF2F20446B1FBF2F1084600F0BA
:100C2000AFFD0F2C4FF0010508D838B94FF0FF3059
:100C300021460022002500F033F87460284670BD7C
:100C400082B0002043F640010190C4F202014A68DC
:100C500042F480424A604A6802F480420192019A5A
:100C60000090086840F080500860086800F08050EC
:100C70000090009802B07047002848BF7047C1B28A
:100C800000F01F00012202FA00F04EF20012CEF234
:100C9000000242EAD10121F0030108607047000020
:100CA00010B54EF60C5CCEF2000CDCF80030C3F34D
:100CB000022E8EF00704042C28BF0424BEF1030387
:100CC0004FF0FF3E0EFA04F438BF0023A1439940D1
:100CD0000EFA03F39A43114300F00F0200F1604350
:100CE0000901043A03F564436244002848BF02F155
:100CF0000C03197010BD00004EF60C51CEF200012D
:100D00000A684FF6FF031A4060F30A2242F080603F
:100D100040F0FD70086070472DE9F041002800F0B8
:100D20008B8043F60808C4F202080446D8F8F8039A
:100D30000D4600F00700884207D288F8F853D8F82B
:100D4000F80300F00700A84276D12068810717D584
:100D5000410705D5D8F8001041F4E051C8F800105B
:100D6000010705D5D8F8001041F46041C8F800101B
:100D7000D8F80010A26821F0F0011143C8F8001063
:100D8000C0073FD1D8F8F80300F00700A84207D900
:100D900088F8F853D8F8F80300F00700A8424BD1C0
:100DA0002068410707D5D8F80010E26821F4E05127
:100DB0001143C8F80010000708D5D8F800002169D1
:100DC00020F4604040EAC100C8F8000000F054F888
:100DD000D8F8001048F2C872C1F30311C0F602023D
:100DE000515C40F2180220FA01F140F20400C2F214
:100DF00000000068C2F200021160FFF7FDFE002053
:100E0000BDE8F0816068811E022907D258F8081CED
:100E100089015CBF0120BDE8F08111E0012807D104
:100E200058F8081C89035CBF0120BDE8F08107E089
:100E300058F8081C890703D40120BDE8F08100BFE1
:100E4000D8F8001021F003010843C8F80000FFF7AC
:100E5000A3FE064641F28837D8F80000616800F02A
:100E60000C00B0EB810F8DD0FFF796FE801BB842CF
:100E7000F2D90320BDE8F08110B543F60404C4F2B2
:100E80000204606800F00C0008280BD0042819BF89
:100E900042F20040C0F2F40047F64000C0F27D107C
:100EA00010BD00BF206821682368490247F6400151
:100EB000C0F27D1100F03F02C3F388105CBF42F224
:100EC0000041C0F2F401A1FB00010023FFF7F4F997
:100ED00021680222C1F3014102EB4101B0FBF1F0B4
:100EE00010BD00002DE9F04182B0002868D0044612
:100EF000007843F60006C007C4F202060BD0B068C3
:100F000000F00C00042840F09F803068800302D578
:100F10006068002854D0207880071AD5B06810F097
:100F20000C0F09D0B06800F00C00082840F0A68033
:100F30007068400200F1A2803068800702D5E06846
:100F400001283DD13068216920F0F80040EAC10055
:100F500030602078000737D4207840074CD4A5694A
:100F600055B3B06800F00C00082840F0BB80012D9C
:100F700026D07068E16900F480028A4220D1216A9B
:100F800000F03F028A421BD147F6C071626A0140FD
:100F9000B1EB821F14D1A16A4FF6FF73C9039943C5
:100FA00000F44032A1F580318A4209D1E16A00F0B3
:100FB0007060B0EB016F03D1002002B0BDE8F0819A
:100FC000012002B0BDE8F0816069002840F2000015
:100FD000C4F2472076D00121C0F8801EFFF7DCFD67
:100FE000054600BF706F8007B6D4FFF7D5FD401BE4
:100FF0000228F7D9DDE000BF306C10F080580AD12C
:1010000000200190306C40F080503064306C00F073
:1010100080500190019847F20007C4F20007386839
:10102000C00541D4386840F480703860FFF7B4FDE3
:10103000054600BF3868C00536D4FFF7ADFD401B3C
:101040000228F7D9B5E000BFB06800F00C0008280E
:1010500003D1706840023FF558AF6068B0F5803F3B
:1010600007D0B0F5A02F40F08D80306840F480208C
:101070003060306840F4803030608DE0E0680028F7
:1010800052D00020C4F2472001210160FFF784FD07
:10109000054600BF306880073FF554AFFFF77CFD81
:1010A000401B0228F6D984E0A068012805D0052855
:1010B0004ED1306F40F004003067306F40F00100D7
:1010C00030674FE00021C0F8801EFFF765FD054640
:1010D000706F80077FF540AFFFF75EFD401B022871
:1010E000F6D966E00027C4F2472700203866FFF7EC
:1010F00053FD022D05460BD1306880015ED5FFF708
:101100004BFD401B02284FF00300F5D955E700BF07
:10111000306880017FF550AFFFF73EFD401B02288D
:101120004FF00300F4D948E70020C4F24720002123
:101130000160FFF731FD0546306880077FF509AF94
:10114000FFF72AFD401B02284FF00300F4D934E7D3
:10115000316F002821F001013167316F21F0040166
:1011600031674DD0FFF718FD054641F2883700BFC3
:10117000306F800756D4FFF70FFD401BB842F7D9F8
:1011800017E000BF3168002821F4803131603168F8
:1011900021F4802131604FD0FFF7FEFC054600BFEF
:1011A000306880033FF5B7AEFFF7F6FC401B6428BC
:1011B000F6D9032002B0BDE8F08100BF04F11C05A0
:1011C0002FCD084340EA8210D9034FF6FF729143B6
:1011D000A1F5803140EA056008437060012038665F
:1011E000FFF7DAFC044600BF306880013FF5E4AE4B
:1011F000FFF7D2FC001B02284FF00300F4D9DCE615
:10120000FFF7CAFC054641F2883700BF306F800700
:1012100008D5FFF7C1FC401BB8424FF00300F5D9D9
:10122000CBE600BFB8F1000F7FF499AE306C20F030
:101230008050306493E600BFFFF7AEFC054600BF68
:10124000306880037FF567AEFFF7A6FC401B64287B
:101250004FF00300F4D9B0E6B0B50446806C58B145
:10126000FFF782F940B1606D012540F01000606524
:10127000E06C20B90BE000BF0025E06C38B1FFF74F
:1012800073F920B1606D012540F0100060652068A1
:10129000416821F0030141600121284684F8511082
:1012A000B0BD00007047000090F85100704700008A
:1012B00070B538B10446406A30B10020206104F1B5
:1012C000140007E0012070BD6068B0F5827F03D094
:1012D00004F11C00002101600026A66294F8510070
:1012E00020B9204684F8506000F03CF8022084F8D1
:1012F000510094E80F0001F48271056802F4044281
:1013000025F040050560114403F40062236911448F
:1013100003F002026369114403F00102A369E56965
:10132000114403F40072114405F03802256A114497
:1013300005F08002A56A114305F4005211430160D3
:10134000626A042101EA134102F010021144416073
:10135000C16921F40061C1610120666584F8510012
:10136000304670BD70B586B00446016843F2000097
:10137000C4F20100814201D006B070BD002643F6E0
:1013800030010196C4F202014A6900F5504042F46E
:1013900080524A614A6902F480520192019A019690
:1013A0000A6842F001020A60096801F00101019136
:1013B0000199A02101910221CDE902160321049196
:1013C0000521059101A9FFF70DFB40F6B02546F276
:1013D0004040C2F20005C4F202004FF0806140229A
:1013E0004FF4806385E847002846C5E90436C5E91F
:1013F0000666C5E90866FFF7DFF9002818BFFFF7A2
:10140000ADF8A564AC6306B070BD00002DE9F043F3
:1014100083B0044690F85000012803D1022003B0A5
:10142000BDE8F0834FF001091D4616460F4684F8CB
:101430005090FFF7B1FB94F85110012944D1804638
:10144000002F4FF0010018BF002E00F0D6800320BF
:10145000002184F8510061652763A686E686A163B2
:10146000A187E187A0682164B0F5004F206861641E
:1014700007D1016821F040010160016841F4804119
:1014800001600168490603D4016841F04001016030
:101490006168731EE268B1FA81F1B3FA83F3490916
:1014A0005B09B2F5006F41EA03013DD131B137F874
:1014B000021BC1602763E08E0138E086E08E0028C1
:1014C0006CD0681C0DD11EE0022096E0216B31F833
:1014D000022BC2602163E08E0138E086E08E002896
:1014E0005CD0206881688907F0D4FFF755FBA0EB3A
:1014F0000800A842F2D303207FE000BFFFF74CFBB7
:10150000E08E00284AD0206881688907F6D5216BD3
:1015100031F8022BC2602163E08E0138E086E08E54
:101520000028F0D13AE000BF39B139780173206B5F
:1015300001302063E08E0138E086E08E70B3681CD5
:101540000BD11BE0216B09780173206B0130206304
:10155000E08E0138E086E08E00B32068816889075C
:10156000F0D4FFF719FBA0EB0800A842F3D3032047
:1015700043E000BFFFF710FBE08E78B12068816880
:101580008907F7D5216B09780173206B013020633F
:10159000E08E0138E086E08E0028EFD140F218009E
:1015A000C2F20000006849F68171C1F25E61A0FBE1
:1015B0000101480D4FF47A71484302906068B0F51C
:1015C000827F23D1204680212A46434601F0BCF881
:1015D00028B1606D40F02000606520206065A06843
:1015E00038B9002001902068C1680191806801909D
:1015F0000198606D002818BF0120002184F85190E7
:1016000084F8501003B0BDE8F08300BF02980028B2
:10161000E5D0029801380290206880680006DED587
:1016200002980028DBD00298013802902068806878
:101630000006D4D502980028D1D002980138029033
:10164000206880680006CAD502980028C7D0029892
:1016500001380290206880680006D7D4BFE70000F8
:1016600010B5044690F85000012804BF022010BDB8
:10167000012084F8500094F8510001280AD1002973
:101680004FF0010018BF002A0AD1002184F8501041
:1016900010BD00BF0220002184F8501010BD00BF13
:1016A00003204FF0000E84F85100C4F854E0216389
:1016B000A286E286C4F838E0C4E910EEA4F83CE063
:1016C000A4F83EE0A0682268B0F5004F07D110688A
:1016D00020F040001060106840F480401060A06C62
:1016E00042F24D6C42F25563C0F6000CC0F60003A6
:1016F000C0E90F3C42F22D63C0F60003C0E9133E7F
:10170000E38E0C32FFF70AF950B1606D40F0100023
:101710006065012084F85100002184F8501010BD4C
:1017200020680168490603D4016841F04001016066
:10173000416841F020014160416841F0020141608F
:101740000020002184F8501010BD000080B500205A
:10175000C4F2020008210122FFF718FA40F6A01097
:10176000C2F2000000680CF0BFFF40F61030C2F279
:101770000000BDE88040FFF76FBD0000704700002B
:10178000411E0020B0EB116F1CBF012070474EF2CC
:101790001002CEF2000251604EF62351CEF200014B
:1017A000F0230B700721906011607047FEE7000086
:1017B0002DE9F04182B0054600242A2098461746BC
:1017C0000E46C4F2020400F0F9FE28BA000CADF88F
:1017D0000000204608210022FFF7D8F940F6103516
:1017E000C2F200052846FFF75FFD0128FAD140F656
:1017F0001035C2F20005694628460222FF23FFF792
:1018000005FE204608210122FFF7C0F938BA000C76
:10181000ADF80200204608210022FFF7B7F900BF0B
:101820002846FFF741FD0128FAD140F61037C2F2F1
:1018300000070DF1020138460222FF23FFF7E6FD03
:10184000204608210122FFF7A1F92B2000F0B6FE67
:1018500030BA000CADF80400204608210022FFF742
:1018600095F900BF3846FFF71FFD0128FAD140F671
:101870001035C2F2000501A928460222FF23FFF716
:10188000C5FD204608210122FFF780F998FA88F06B
:10189000000CADF80600204608210022FFF776F97B
:1018A0002846FFF701FD0128FAD140F61030C2F2B8
:1018B00000000DF106010222FF23FFF7A7FD2046DD
:1018C00008210122FFF762F92C2000F077FE02B018
:1018D000BDE8F08180B548434FEA400CBCF1010FF0
:1018E000114631DBCA1D634612F8070C12F806ECEC
:1018F000032B02F8060C02F807EC25D312F8050CAE
:1019000012F804EC02F8040C581F10F1040F02F84E
:1019100005EC19D812F8030C12F802EC02F8020CCC
:10192000D81F10F1040F02F803EC0DD812F8010CC7
:1019300092F800E002F8080BA3F10900083B10F14F
:10194000030F02F809ECCFD340F610301FFA8CF2E7
:10195000C2F20000BDE88040FFF782BEF0B585B05E
:10196000002043F630010090C4F202010A6800240E
:1019700042F001020A600A68C4F2020402F00102A5
:101980000092009A00900A686D4642F008020A60D0
:101990000A68022602F008020092009A0090086885
:1019A000012740F0020008600868294600F00200A4
:1019B0000090009820460096CDE901770396FFF746
:1019C00011F8204602210122FFF7E0F80420CDE9BA
:1019D000000720462946CDE90276FFF703F82046A6
:1019E00004210122FFF7D2F81820CDE90007204694
:1019F0002946CDE90276FEF7F5FF2046182101229F
:101A0000FFF7C4F805B0F0BD70B582B00024C4F291
:101A10000204FFF7A3FF204602210122FFF7B6F8D8
:101A20000A20FEF7CBFF204602210022FFF7AEF886
:101A30000A20FEF7C3FF204602210122FFF7A6F885
:101A40007820FEF7BBFF204610210122FFF79EF809
:101A5000112000F0B3FD7820FEF7B0FF362000F033
:101A6000ADFDA0208DF80700204608210022FFF7D9
:101A70008DF840F61035C2F2000500BF2846FFF78A
:101A800013FC0128FAD140F61035C2F200050DF121
:101A9000070128460122FF23FFF7B8FC2046082152
:101AA0000122FFF773F83A2000F088FD05208DF839
:101AB0000700204608210022FFF768F82846FFF7B4
:101AC000F3FB0128FAD140F61035C2F200050DF102
:101AD000070128460122FF23FFF798FC2046082132
:101AE0000122FFF753F8B22000F068FD05208DF8C1
:101AF0000700204608210022FFF748F82846FFF794
:101B0000D3FB0128FAD140F61035C2F200050DF1E1
:101B1000070128460122FF23FFF778FC2046082111
:101B20000122FFF733F805208DF807002046082131
:101B30000022FFF72BF800BF2846FFF7B5FB01286E
:101B4000FAD140F61035C2F200050DF10701284622
:101B50000122FF23FFF75AFC204608210122FFF74C
:101B600015F800208DF80700204608210022FFF715
:101B70000DF800BF2846FFF797FB0128FAD140F681
:101B80001035C2F200050DF1070128460122FF239E
:101B9000FFF73CFC204608210122FEF7F7FF332027
:101BA0008DF80700204608210022FEF7EFFF00BF56
:101BB0002846FFF779FB0128FAD140F61035C2F22A
:101BC00000050DF1070128460122FF23FFF71EFC47
:101BD000204608210122FEF7D9FF33208DF80700A7
:101BE000204608210022FEF7D1FF00BF2846FFF75C
:101BF0005BFB0128FAD140F61035C2F200050DF169
:101C0000070128460122FF23FFF700FC2046082198
:101C10000122FEF7BBFFB72000F0D0FC35208DF885
:101C20000700204608210022FEF7B0FF2846FFF7F4
:101C30003BFB0128FAD140F61035C2F200050DF148
:101C4000070128460122FF23FFF7E0FB2046082179
:101C50000122FEF79BFFBB2000F0B0FC21208DF895
:101C60000700204608210022FEF790FF2846FFF7D4
:101C70001BFB0128FAD140F61035C2F200050DF128
:101C8000070128460122FF23FFF7C0FB2046082159
:101C90000122FEF77BFFC02000F090FC2C208DF885
:101CA0000700204608210022FEF770FF2846FFF7B4
:101CB000FBFA0128FAD140F61035C2F200050DF109
:101CC000070128460122FF230126FFF79FFB20463C
:101CD00008210122FEF75AFFC22000F06FFC2046C7
:101CE000082100228DF80760FEF750FF2846FFF715
:101CF000DBFA0128FAD140F61035C2F200050DF1E9
:101D0000070128460122FF23FFF780FB2046082118
:101D10000122FEF73BFFC32000F050FC0B208DF8A2
:101D20000700204608210022FEF730FF2846FFF773
:101D3000BBFA0128FAD140F61035C2F200050DF1C8
:101D4000070128460122FF23FFF760FB20460821F8
:101D50000122FEF71BFFC42000F030FC20208DF88C
:101D60000700204608210022FEF710FF2846FFF753
:101D70009BFA0128FAD140F61035C2F200050DF1A8
:101D8000070128460122FF23FFF740FB20460821D8
:101D90000122FEF7FBFEC62000F010FC0F208DF89C
:101DA0000700204608210022FEF7F0FE2846FFF734
:101DB0007BFA0128FAD140F61035C2F200050DF188
:101DC000070128460122FF23FFF720FB20460821B8
:101DD0000122FEF7DBFED02000F0F0FBA7208DF8FB
:101DE0000700204608210022FEF7D0FE2846FFF714
:101DF0005BFA0128FAD140F61035C2F200050DF168
:101E0000070128460122FF23FFF700FB2046082197
:101E10000122FEF7BBFEA1208DF807002046082115
:101E20000022FEF7B3FE00BF2846FFF73DFA012867
:101E3000FAD140F61035C2F200050DF1070128462F
:101E40000122FF23FFF7E2FA204608210122FEF7D4
:101E50009DFED02000F0B2FBA4208DF807002046A4
:101E600008210022FEF792FE2846FFF71DFA0128FE
:101E7000FAD140F61035C2F200050DF107012846EF
:101E80000122FF23FFF7C2FA204608210122FEF7B4
:101E90007DFEA1208DF80700204608210022FEF7D4
:101EA00075FE00BF2846FFF7FFF90128FAD140F67A
:101EB0001035C2F200050DF1070128460122FF236B
:101EC000FFF7A4FA204608210122FEF75FFED62084
:101ED00000F074FBA1208DF80700204608210022A5
:101EE000FEF754FE2846FFF7DFF90128FAD140F645
:101EF0001035C2F200050DF1070128460122FF232B
:101F0000FFF784FA204608210122FEF73FFEE02079
:101F100000F054FBD0208DF8070020460821002255
:101F2000FEF734FE2846FFF7BFF90128FAD140F644
:101F30001035C2F200050DF1070128460122FF23EA
:101F4000FFF764FA204608210122FEF71FFE042055
:101F50008DF80700204608210022FEF717FE00BF7B
:101F60002846FFF7A1F90128FAD140F61035C2F250
:101F700000050DF1070128460122FF23FFF746FA6D
:101F80002046082101220826FEF700FE20460821EF
:101F900000228DF80760FEF7F9FD00BF2846FFF725
:101FA00083F90128FAD140F61035C2F200050DF18F
:101FB000070128460122FF23FFF728FA20460821BF
:101FC0000122FEF7E3FD0A208DF8070020460821D4
:101FD0000022FEF7DBFD00BF2846FFF765F9012868
:101FE000FAD140F61035C2F200050DF1070128467E
:101FF0000122FF23FFF70AFA204608210122FEF7FB
:10200000C5FD09208DF80700204608210022FEF7B3
:10201000BDFD00BF2846FFF747F90128FAD140F679
:102020001035C2F200050DF1070128460122FF23F9
:10203000FFF7ECF9204608210122FEF7A7FD052055
:102040008DF80700204608210022FEF79FFD00BF03
:102050002846FFF729F90128FAD140F61035C2F2D7
:1020600000050DF1070128460122FF23FFF7CEF9F5
:10207000204608210122FEF789FD2D208DF807005A
:10208000204608210022FEF781FD00BF2846FFF709
:102090000BF90128FAD140F61035C2F200050DF116
:1020A000070128460122FF23FFF7B0F92046082147
:1020B0000122FEF76BFD43208DF807002046082122
:1020C0000022FEF763FD00BF2846FFF7EDF8012868
:1020D000FAD140F61035C2F200050DF1070128468D
:1020E0000122FF23FFF792F9204608210122FEF783
:1020F0004DFD49208DF80700204608210022FEF7FB
:1021000045FD00BF2846FFF7CFF80128FAD140F679
:102110001035C2F200050DF1070128460122FF2308
:10212000FFF774F9204608210122FEF72FFD092050
:102130008DF80700204608210022FEF727FD00BF8A
:102140002846FFF7B1F80128FAD140F61035C2F25F
:1021500000050DF1070128460122FF23FFF756F97C
:10216000204608210122FEF711FD16208DF80700F8
:10217000204608210022FEF709FD00BF2846FFF790
:1021800093F80128FAD140F61035C2F200050DF19E
:10219000070128460122FF23FFF738F920460821CE
:1021A0000122FEF7F3FC15208DF8070020460821D8
:1021B0000022FEF7EBFC00BF2846FFF775F8012868
:1021C000FAD140F61035C2F200050DF1070128469C
:1021D0000122FF23FFF71AF9204608210122FEF70A
:1021E000D5FC26208DF80700204608210022FEF7A6
:1021F000CDFC00BF2846FFF757F80128FAD140F67A
:102200001035C2F200050DF1070128460122FF2317
:10221000FFF7FCF8204608210122FEF7B7FC2B202F
:102220008DF80700204608210022FEF7AFFC00BF12
:102230002846FFF739F80128FAD140F61035C2F2E6
:1022400000050DF1070128460122FF23FFF7DEF804
:10225000204608210122FEF799FCE12000F0AEF9AA
:10226000D0208DF80700204608210022FEF78EFCC2
:102270002846FFF719F80128FAD140F61035C2F2C6
:1022800000050DF1070128460122FF23FFF7BEF8E4
:10229000204608210122FEF779FC03208DF8070073
:1022A000204608210022FEF771FC00BF2846FEF7F9
:1022B000FBFF0128FAD140F61035C2F200050DF1FE
:1022C000070128460122FF23FFF7A0F82046082136
:1022D0000122FEF75BFC09208DF80700204608214B
:1022E0000022FEF753FC00BF2846FEF7DDFF012861
:1022F000FAD140F61035C2F200050DF1070128466B
:102300000122FF23FFF782F8204608210122FEF771
:102310003DFC0A208DF80700204608210022FEF728
:1023200035FC00BF2846FEF7BFFF0128FAD140F672
:102330001035C2F200050DF1070128460122FF23E6
:10234000FFF764F8204608210122FEF71FFC0A204F
:102350008DF80700204608210022FEF717FC00BF79
:102360002846FEF7A1FF0128FAD140F61035C2F247
:1023700000050DF1070128460122FF23FFF746F86B
:10238000204608210122FEF701FC06208DF80700F7
:10239000204608210022FEF7F9FB00BF2846FEF781
:1023A00083FF0128FAD140F61035C2F200050DF185
:1023B000070128460122FF23FFF728F820460821BD
:1023C0000122FEF7E3FB2E208DF8070020460821AE
:1023D0000022FEF7DBFB00BF2846FEF765FF012861
:1023E000FAD140F61035C2F200050DF1070128467A
:1023F0000122FF23FFF70AF8204608210122FEF7F9
:10240000C5FB44208DF80700204608210022FEF776
:10241000BDFB00BF2846FEF747FF0128FAD140F672
:102420001035C2F200050DF1070128460122FF23F5
:10243000FEF7ECFF204608210122FEF7A7FB402013
:102440008DF80700204608210022FEF79FFB00BF01
:102450002846FEF729FF0128FAD140F61035C2F2CE
:1024600000050DF1070128460122FF23FEF7CEFFEC
:10247000204608210122FEF789FB3A208DF807004B
:10248000204608210022FEF781FB00BF2846FEF708
:102490000BFF0128FAD140F61035C2F200050DF10C
:1024A000070128460122FF23FEF7B0FF204608213E
:1024B0000122FEF76BFB15208DF80700204608214E
:1024C0000022FEF763FB00BF2846FEF7EDFE012861
:1024D000FAD140F61035C2F200050DF10701284689
:1024E0000122FF23FEF792FF204608210122FEF77A
:1024F0004DFB15208DF80700204608210022FEF72D
:1025000045FB00BF2846FEF7CFFE0128FAD140F672
:102510001035C2F200050DF1070128460122FF2304
:10252000FEF774FF204608210122FEF72FFB26202C
:102530008DF80700204608210022FEF727FB00BF88
:102540002846FEF7B1FE0128FAD140F61035C2F256
:1025500000050DF1070128460122FF23FEF756FF73
:10256000204608210122FEF711FB2A208DF80700E2
:10257000204608210022FEF709FB00BF2846FEF78F
:1025800093FE0128FAD140F61030C2F200000DF19E
:1025900007010122FF23FEF739FF2046082101220F
:1025A000FEF7F4FA212000F009F8292000F006F8DF
:1025B0000A20FEF703FA02B070BD0000B0B582B089
:1025C0000024C4F202048DF80700204604210022F2
:1025D000FEF7DCFA204608210022FEF7D7FA40F683
:1025E0001035C2F2000500BF2846FEF75DFE012847
:1025F000FAD140F61030C2F200000DF107010122BD
:10260000FF23FEF703FF204608210122FEF7BEFA52
:10261000204604210122FEF7B9FA02B0B0BD000045
:10262000FEE70000FEE7000070470000806B0168D5
:102630004A6822F003024A60416D41F01001416591
:10264000012180F85110FEF72DBE0000806BFFF7CE
:1026500095B80000B0B582B0846B0546FEF79CFAD1
:1026600029680968C90569D40346206849F681725A
:102670004168C1F25E6221F020014160416821F0B1
:102680000201416040F21801C2F200010968A1FB99
:102690000212510D4FF47A72514301916168B1F504
:1026A000827F25D120468021642200F04DF838B188
:1026B000606D40F020006065606D40F02000606556
:1026C000A06838B9002000902068C1680091806837
:1026D000009000980020E086012084F85100606D91
:1026E00060B3204602B0BDE8B040FEF7DBBD00BFDE
:1026F00001990029E4D00199013901918168090605
:10270000DED501990029DBD0019901390191816859
:102710000906D5D501990029D2D001990139019135
:1027200081680906CCD501990029C9D001990139E0
:10273000019181680906DBD4C2E700BF204602B0E0
:10274000BDE8B040FFF702B82DE9F04182B01E4667
:1027500090460D460446FEF71FFA301A00EB0807B4
:10276000FEF71AFA40F21801C2F200010968C1F33B
:10277000CB317943019121688A682A40AA4227D146
:10278000064618F101001FD0FEF706FA801BB8427A
:1027900022D2019801990028A1F10101019121683B
:1027A000896808BF074601EA0500A842ECD00FE09F
:1027B00088682840A8420BD188682840A84207D1E1
:1027C00088682840A84203D188682840A842EFD0F2
:1027D000002002B0BDE8F081D4E900014268B1F503
:1027E000827F22F0E00242600AD1A168B1F5004F79
:1027F00002D0B1F5806F03D1016821F04001016082
:10280000A16AB1F5005F07D1016821F400510160B0
:10281000016841F400510160012084F8510000205A
:1028200084F85000032002B0BDE8F081704700003A
:1028300080B5FEF7B7F90120BDE8804021F08CBFDC
:10284000B0B592B0002443F640000B94CDE90944A2
:10285000CDE907440594CDE90344CDE90144009452
:10286000C4F202000168022541F080510160006855
:1028700000F080500090009847F200000094C4F2ED
:102880000000016841F440410160006800F44040EC
:10289000009000980120099010200A9008200E90C6
:1028A0006420CDE90F050420119006A80695CDE916
:1028B0000C54FEF717FB28B1EFF3108072B600BF7F
:1028C000FEE700BF0F20CDE901054FF48050CDE9B0
:1028D000040401A803210394FEF71EFA20B1EFF3CC
:1028E000108072B6FEE700BF12B0B0BD4EF6885041
:1028F000CEF20000016841F47001016070470000F1
:10290000FEE70000B0B540F2C874C2F200042046F1
:102910004C2100F07BFE44F6CD70C0F60000212172
:10292000002221F023FF40F27075C2F200056860BA
:1029300001202870204600F055FE0146686829B144
:1029400022F03CF800202870B0BD00BF22F026F82D
:1029500000202870B0BD000070B50346B1F900003A
:10296000B2F90040B1F902C0B2F90250B1F904E085
:10297000B2F90460A042B1F90610B2F90620C8BF4E
:102980000446AC451C80C8BF6546B6455D80B8BFEF
:10299000764691429E80B8BF0A460020B4424FF06E
:1029A0000001D8BF01219542D8BF01200840DA803C
:1029B00070BD00002DE9F04381B00C46B0F9007005
:1029C000B1F900108F423DDBB0F90260B4F902109A
:1029D0008E4237DBB0F90490B4F90410894531DC3C
:1029E000B0F90680B4F9060080452BDC15466AB3C1
:1029F000694620462A46ADF80070ADF8026000F046
:102A000097F8F8B1694620462A46ADF80090ADF82F
:102A1000026000F08DF8A8B1694620462A46ADF85C
:102A20000070ADF8028000F083F858B16946204686
:102A30002A46ADF80090ADF8028000F079F801B0B8
:102A4000BDE8F083002001B0BDE8F083012001B0B3
:102A5000BDE8F083B0F90020B1F904309A4213DCEC
:102A6000B0F90420B1F900309A420DDBB0F9022030
:102A7000B1F906309A4207DCB0F90600B1F902104C
:102A80008842A4BF01207047002070472DE9F04321
:102A900081B00C46B0F90460B1F900108E4211DB30
:102AA000B0F90670B4F902108F420BDBB0F9008068
:102AB000B4F90410884505DCB0F90290B4F90600B9
:102AC000814503DD012001B0BDE8F0831546EAB180
:102AD000694620462A46ADF80080ADF8029000F025
:102AE00027F898B9694620462A46ADF80060ADF847
:102AF000029000F01DF848B9694620462A46ADF814
:102B00000080ADF8027000F013F818B1002001B099
:102B1000BDE8F083694620462A46ADF80060ADF86E
:102B2000027000F005F880F0010001B0BDE8F0830C
:102B30002DE9F041B1F90030B0F90040A3420DDBBE
:102B4000B0F904E0734509DCB1F902C0B0F9021034
:102B50008C4503DBB0F90650AC4503DD0020BDE831
:102B6000F08100BF012A54DBAEEB0400013086B2D5
:102B700000EBD63006B2681A013087B200EBD730CE
:102B800007B24FEA66087810B8EB670FB8BF70104D
:102B90009042A8BF1046021917B24218BB4216B2A3
:102BA000D8BFB44516DD2A1ABB4212B22CDC9445BC
:102BB0002ADB391809B2091B01EBD1714F1004EB64
:102BC000610602EB6101401A9B1B604407FB07F1A1
:102BD0000FE000BF384400B2001B00EBD070421081
:102BE00004EB600701EB6000DB1BACEB000002FBB9
:102BF00002F110FB00F013FB030200208A4298BF91
:102C00000120BDE8F08100BFAEEB000424B2A34276
:102C100002DA0120BDE8F081944517DAB445F8DC0A
:102C2000201A02B2AEEB020202EBD27201EB620199
:102C300000EB6200ACEB01015710181A11FB01F117
:102C400007FB07F210FB001114E000BF211A0CB2C1
:102C5000AEEB040707EBD77702EB6702801A01EBB4
:102C6000670160447E10591A10FB00F006FB06F263
:102C700011FB01010020914298BF0120BDE8F081C5
:102C800070B5B1F90030B2F90040B1F902C0B2F943
:102C90000250B1F904E0B2F90460A342B1F90610A0
:102CA000B2F90620B8BF1C46AC450480B8BF6546E3
:102CB000B6454580C8BF764686809142C8BF0A4661
:102CC000C28070BD2DE9F04F8BB0054621F02CFD80
:102CD00040F6A8180446C2F200084DB1E868C8F8EA
:102CE0000000284621F05AFED8F8000038B9A1E0CB
:102CF0000BF0FEFCC8F80000002800F09B80C169C2
:102D0000002900F097800169002900F093803221AA
:102D100000220BF0C1FDD8F80010D1F86C01C1F809
:102D2000AC4120F03DFBD8F80010D1F8700118B18B
:102D300020F036FBD8F80010D1F8780120F030FBF5
:102D4000D8F80000D0F87C0120F02AFBD8F8000069
:102D5000D0F8800120F024FBD8F80000D0F86C11E6
:102D600000296BD090F82D10012905D1D0F8581109
:102D7000097D092940F05582B0F85061002E00F01D
:102D80004A8200244FF001090DF1200B012103E0DC
:102D90000134B442314655D2021992F83021002A4A
:102DA000F6D10029F4D0002707E000BFD8F80000D2
:102DB0000137B0F85061B742EAD2C11991F8301129
:102DC0000029F3D1A742F1D000F1300101EBC4009A
:102DD00001EBC701FFF73EFE0028E7D0D8F800005E
:102DE000303000EBC40100EBC7025846FFF748FF44
:102DF000584608F023FBD8F80010054601EBC40044
:102E0000303008F01BFBD8F80010064601EBC70075
:102E1000303008F013FB30448542C7D2D8F80000A8
:102E2000DDE9082300EBC40138440A634B6380F8F2
:102E30003091BBE70BB0BDE8F08F00BF0021A0F8D8
:102E40005011EEE1002E00F0E681012E16DB811913
:102E500091F82F21A2B1022E10D391F82E218AB120
:102E6000032E0BD391F82D2172B1042E06D391F8C5
:102E70002C11043E0029E8D107E000BF002604E041
:102E8000013E02E0023E00E0033E2F2100220BF053
:102E900003FDD8F8000090F82C2090F82E1002F0D6
:102EA000FE0280F82C2090F82C2002F0FD0280F821
:102EB0002C20B0F85021002A41F0020280F82E2088
:102EC00000F06281002409E0049C00BFD8F80000F3
:102ED0000134B0F850118C4280F03081011991F822
:102EE00030110029F2D1B44205D190F82C1041F0F4
:102EF000010180F82C1090F82C1000EBC40201F0B6
:102F0000FD0180F82C10D0F85851816902F1300A87
:102F1000296090F82D1049B30BF00EFCD8F8001082
:102F2000A0F1010908460BF07FFC013807B20FFA47
:102F300089F3584600210022009708F0B3FAD8F828
:102F40000000C5F804B090F82D10012922D0022904
:102F5000BCD190F82C1041F0020180F82C10DDE972
:102F60000801C5E902B0296128E000BFBAF80210E3
:102F70000494BAF80090BAF80440BAF906700591C2
:102F80000BF052FC8742CDF81CA01BDABAF8060001
:102F90001DE000BF90F82C1090F82C2001F00101EA
:102FA00002F0FD0242EA410180F82C10C5F808A0A9
:102FB000DAF80400DAF80010C5E90310284622F018
:102FC000D5FD83E7D8F800000BF02EFC0138069001
:102FD000A4EB090000F1010AD8F800400598391A5D
:102FE00094F82F0001F1010908F0E8FB94F82F1084
:102FF0000746084608F0CCFBE1690222002F18BF03
:103000000322824298BF0246B1FBF2F00FFA8AF126
:10301000B0FBF1F00FFA89F94845B8BF81460020AE
:103020004F460890ADF82400D8F800007C1E2E21F1
:103030005A46ADF826400BF02FFCBDF82210BDF922
:103040002600411A013109B2894502DA27B2002F60
:10305000EADC39B2421C0129B8BF0022079B069F57
:10306000B3F90200059202440FFA87FB511E59453D
:1030700080B20EDD4FF0000938E000BF284622F094
:1030800075FD0598069F00FA8AF2511E5945504673
:103090002ADC079C924623880AB2ADF82030A38828
:1030A000ADF82200ADF82430ADF82610DDE90801B6
:1030B00008ABC5E90301D8F800006B60AB60836919
:1030C00093452B60BABFADF82670B9464FEA114957
:1030D0001FFA89F1BAB28A42D0D190F82C1041F08F
:1030E000020180F82C10C9E7079B50461FFA89F1AE
:1030F000BAB28A420DF1200B3FF4E6AE1988ADF862
:1031000020109988ADF82200ADF82410ADF8267093
:10311000DDE90810C5F804B0C5E90310D8F80000CF
:10312000C5F808B08169296090F82C1041F00201BF
:1031300080F82C10284622F019FDC5E690F82E20C4
:10314000002902F0FD0280F82E2064D030210022F8
:103150004FF000090BF0A0FBD8F800000BF07CFB4F
:10316000D8F80010002843D091F82D0001283FD155
:10317000486A78B1D1F8B021002AF9D008469047C2
:10318000D8F80010F4E700BF01F0FD0180F82E1020
:1031900041E000BFD1F810B0D1F818A00846DA45D8
:1031A00008BFD1F814B00BF0C7FAD8F80010B1F886
:1031B0005021EAB105460026302406E0B1F850015E
:1031C0000136864204F1080412D2881990F83001C1
:1031D0000028F3D1D1F858010B19076C51462A4643
:1031E000CDE900B50293B847D8F80010E6E700BF74
:1031F00001F1300000214FF480721AF0CFFCD8F8B2
:103200000000002100F5987020221AF0C7FCD8F8C1
:103210000000A0F8509100F063F800F009F8D8F829
:103220000000332100220BF037FB0BB0BDE8F08F1C
:1032300010B540F6A004C2F200042068002818BFB0
:1032400016F036FF204600211C221AF0A7FCE06988
:10325000002818BF16F02CFF04F11C0000211C22CE
:103260001AF09CFCA06B002818BF16F021FF04F197
:10327000380000211C221AF091FC606D002818BF54
:1032800016F016FF04F1540000211C22BDE8104086
:103290001AF084BC40F6AC21C2F20001096804E0D7
:1032A0000A7E42F001020A764969002908BF704788
:1032B0004A688242F4D00A688242F5D1F0E7000001
:1032C000406940F6AC21C2F200010860704700007E
:1032D00040F6AC21C2F200010A6808604261704702
:1032E0007047000040F2BC70C2F20000042100F000
:1032F0008DB9000040F2D470C2F20000202100F02D
:1033000085B900002DE9F04F85B00E9E1D46002BBB
:10331000834608BFB6F5807F68D0DDF83C80002387
:103320000139013A019301A8ADF80810CDF80A302F
:10333000ADF80E20ADF81010ADF812202946324637
:103340004346071D00F1080900F10C0A20F050F86F
:10335000384629463246434620F04AF84846294630
:103360003246434620F044F850462946324643460A
:1033700020F03EF8BDF90430BDF90870BDF90C50DD
:10338000BDF91040BB423E46BDF90620BDF90A100A
:10339000B8BF1E46A5422046B8BF28468642B8BFE1
:1033A0003046BB42ABF80000C8BF1F46A542C8BFAD
:1033B0002C46A742C8BF3C46BDF90E60BDF912308D
:1033C0008A420846B8BF10469E421F46B8BF3746DD
:1033D000B842B8BF07468A42C8BF11469E42C8BF1E
:1033E00033469942C8BF0B4605E000BF0027ABF843
:1033F00000704C1E531EABF80270ABF80440ABF8E3
:10340000063005B0BDE8F08F10B584B001AC2046A1
:1034100017F056FC43F25140C0F6000001904AF606
:10342000D140C0F6010002904AF6A540C0F6010066
:103430000390204617F038FC04B010BD40F6683306
:10344000C2F200031B680BB189B21847FEE7000007
:10345000F0B581B016460C46074621F065F9A2B2D8
:1034600040F63804C2F20004054620463946334689
:1034700017F09EFD30B1A06A0021616370B1204653
:1034800001B0F0BD2046002138221AF087FB4FF032
:10349000004060630024204601B0F0BD284621F0C2
:1034A0002BF9002808BF0120A062204601B0F0BD22
:1034B00010B540F2E074C2F200042046142100F07E
:1034C000A5F8204600F0AAF8A0B100211422044675
:1034D0001AF064FB4AF68D504AF65961C0F60100B5
:1034E000C0F60101C4E900014AF65550C0F60100DA
:1034F000E06010BDFEE70000F0B585B004460D4663
:1035000018B90BF0F5F8044660B320460BF0AAF9A1
:1035100040B394F82E00800724D4002025B30290F5
:1035200020460BF009F90138ADF80C0020460BF0ED
:103530007BF90138ADF80E00684602AA2946FFF76C
:103540000BFA78B194F82D00022811D10298039952
:1035500020630120A4F85001D4F8A401616308B1EC
:1035600021F02CFA05B0F0BDA4F8500105B0F0BD73
:103570006A4620462E210BF08FF90128F2D1B4F8CB
:103580005001D8B104F1300500276E463046294677
:103590000022FFF70FFA0028E4D1B4F850110137E8
:1035A0008F4205F10805F1D3202931BF684600217B
:1035B000A4F850110DF1080002E000BF6846002198
:1035C0000368406804EBC1025063D4F8A4010131E0
:1035D00000281363A4F8501118BF21F0EFF905B0CB
:1035E000F0BD0000002814BF4068002070470000B4
:1035F0000068084440687047006808587047000039
:10360000002814BF806800207047000003310022AA
:1036100021F00301C0E900128260704710B5044632
:103620000068083019F038FF002808BF10BD216875
:1036300000224250626843185A606268002A18BF2C
:103640005050A1686060002908BFA06010BD000054
:1036500010B504460068083019F01EFF002808BFA6
:1036600010BD22680023111D4350A3688350A26837
:10367000002A18BF50506168A060002908BF606030
:1036800010BD000080B5002808BF80BD42688A4296
:1036900014D0D0F800E0826851F80E308A4219D078
:1036A0000EF1040C51F80C00002B18BF43F80C006D
:1036B000002818BF40F80E3080BD00BF02681144DA
:1036C00049680029416007BF0021816000208850BF
:1036D00080BD00BF0021002B836018BF0EEB0300EC
:1036E000416080BD10B50446006804E00068002811
:1036F00008BF10BD20608268002AF7D0214690479D
:103700002068F3E78068002814BF408B002000B2D7
:1037100070470000806800280EBF0020407FC0F383
:1037200001107047F0B581B01446C8B16122064659
:103730000F461DF0CBF898B10546006880B13046C1
:10374000394662221DF0C2F8010609D02B68A1B2E9
:10375000C2B228469847C0EA040001B0F0BD00BFDD
:103760002046C0EA040001B0F0BD00002DE9F04F92
:1037700093B00446408CDDF870B040F004006084E3
:1037800022841646BBF8082020461F468A461DF0B4
:103790009DF82784BBF808200546204651461DF0B9
:1037A00095F8618C814621F004004D45608403D179
:1037B00002D113B0BDE8F08F2684BBF80820204664
:1037C00051461DF083F8804620465146278405F077
:1037D00041F90068BBF80810424620F021FABBF816
:1037E00008000B2828D147F6FF76B04518BFB14531
:1037F00022D120461DF07AFA81B200EBD13000B21E
:10380000451020461CF0E4F981B200EBD13000B243
:10381000B0454FEA600005D1691C00F1010841453F
:10382000B8BF884647F6FF71894505D1691C00F18C
:1038300001094945B8BF894640F2EC70C2F2000068
:10384000FFF7ECFED0B3C0E9038904600646BBF87D
:1038500008006C46B0802046C6F808A007F008F9BA
:1038600047F69550C0F60200019047F6C170C0F6C9
:103870000200029047F60170C0F60200039000209B
:10388000CDE90800FF200A90BBF80000BBF8021049
:103890000B904842DBF80C100C909DF84200079109
:1038A000DBF8101000F0FE008DF842002046009674
:1038B000069107F03BF913B0BDE8F08FFEE700007A
:1038C00040F2EC70C2F200001421FFF79FBE00002E
:1038D0002DE9F04782B00446408C10F4FC7F00F0E4
:1038E0002B816FEA01086FEA02094FF0000A01AD6F
:1038F000002709E04FF0020A608C00BF0137C0F3D7
:10390000C5018F4280F01281E16801EBC702526865
:103910009301F3D492B212EA080302EA0902B2FA5E
:1039200082F24FEA521218BF01235340E6D151F8F8
:103930003760102130462A461FF01CFF002840F057
:10394000F380304611212A461FF014FF002840F072
:10395000EB80304612212A461FF00CFF002840F071
:10396000E380304613212A461FF004FF002840F070
:10397000DB80304615212A461FF0FCFE002840F06F
:10398000D380304614212A461FF0F4FE002840F070
:10399000CB8030460A212A461FF0ECFE002840F07A
:1039A000C38030466A212A461FF0E4FE002840F01A
:1039B000BB8030466B212A461FF0DCFE002840F019
:1039C000B380304601212A461FF0D4FE002840F083
:1039D000AB80304604212A461FF0CCFE002840F080
:1039E000A380304602212A461FF0C4FE002840F082
:1039F0009B80304603212A461FF0BCFE002840F081
:103A00009380304605212A461FF0B4FE002840F07E
:103A10008B80304606212A461FF0ACFE002840F07D
:103A20008380304632212A461FF0A4FE00287BD135
:103A300030466D212A461FF09DFE002874D1304685
:103A40006C212A461FF096FE00286DD13046682171
:103A50002A461FF08FFE00287FF44CAF30466921C4
:103A60002A461FF087FE00287FF444AF30466D21C0
:103A70002A461FF07FFE00287FF43CAF30466C21C1
:103A80002A461FF077FE00287FF434AF30463721F6
:103A90002A461FF06FFE00287FF42CAF30463821F5
:103AA0002A461FF067FE00287FF424AF30463521F8
:103AB0002A461FF05FFE00287FF41CAF30464021ED
:103AC0002A461FF057FE00287FF414AF30464521E8
:103AD0002A461FF04FFE00287FF40CAF30464121EC
:103AE0002A461FF047FE00287FF404AF30464221EB
:103AF0002A461FF03FFE00287FF4FCAE30464321EB
:103B00002A461FF037FE00287FF4F4AE30464921E4
:103B10002A461FF02FFE00287FF4ECAEBAF1000F0A
:103B200008BF4FF0010AE7E64FF0030A5FFA8AF098
:103B300002B0BDE8F08700BF4FF0000A5FFA8AF0DC
:103B400002B0BDE8F087000040F6A810C2F2000005
:103B50000068704770470000C0F30410072828BFB2
:103B6000072070474FF6FF71884204BF3F2070471F
:103B7000002804BF002070476F2805D848F6EE01E2
:103B8000C0F60201085C704740F29471C2F2000175
:103B9000096851B140F69012C2F200027038126802
:103BA00080B2824284BF085C7047002070470000EA
:103BB00080B540F29870C2F200001821FFF726FD90
:103BC00040F61000C2F20000012141700021416165
:103BD00080BD00002DE9F04140F21008C2F200085B
:103BE0001446D8F804200F4619461D46064690474D
:103BF000386048B12868D8F8042030440021904744
:103C00002060BDE8F08100BF00202060BDE8F081A9
:103C10002DE9F04F8DB0DDF858B08046BBF1000FB4
:103C20001F460C461CBF0020ABF80000B8F1000F87
:103C300036D0002C4FF0000000F0538398F80010AD
:103C4000002900F04E83179810F0060F2CD00020AA
:103C5000012242F2014301E0397904300D2904D8F0
:103C600002FA01F71F4240F0948108EB00077978CF
:103C70000D2904D802FA01F61E4240F08781B97876
:103C80000D2904D802FA01F61E4240F08181F9782C
:103C90000D29E1D802FA01F61E42DDD0033078E1A9
:103CA00000200DB0BDE8F08F0021012F0A91C0F275
:103CB0000483C00706920894CDF8088040F078810C
:103CC00041464FF0000A002540F21000C2F2000009
:103CD000426800200C90079108460CA99047814645
:103CE00018F805000C9900280B9100F00381B8B278
:103CF0000590002009900798CDE9037A4FF000085D
:103D00004FF0FF3400264FF0000A40F21001C2F2DB
:103D100000014A680BA9A346904707460898494600
:103D20003A4616F073F901B2064406980029C8BF56
:103D3000064431B2059A081A90425446D8BF4FF053
:103D4000FF341BF10102A9F10A0218BF5C46732A75
:103D500000F27680DFE812F0B60074007400B6005E
:103D600074007400740074007400740074007400B3
:103D700074007400740074007400740074007400A3
:103D800074007400B6007400740074007400740051
:103D9000740074007400B60074007400B600B600BD
:103DA000B600740074007400740074007400740031
:103DB0007400740074007400B600B60074007400DF
:103DC0007400740074007400740074007400740053
:103DD0007400740074007400740074007400740043
:103DE0007400740074007400740074007400740033
:103DF0007400740074007400740074007400B600E1
:103E00007400B600740074007400740074007400D0
:103E10007400740074007400740074007400740002
:103E200074007400740074007400740074007400F2
:103E30007400740074007400740074007400B600A0
:103E400097B127F03F02B2F5405F00F09580A7F5EB
:103E50009C4245F2A6139A42C0F08E804FF6017242
:103E6000BA1A5E2AC0F08880B9F1000F11D029F08B
:103E70003F02B2F5405F00F07F80A9F59C4245F219
:103E8000A6139A4278D34FF60172A9EB02025E2A7A
:103E900072D3621C08BF8846DDE90B1A07980C91A3
:103EA00010F80A10099A002902F10102B946099294
:103EB0007FF42BAF4146B946DDF80880621C20D163
:103EC0002AE000BFBAF1000F16D10298621C1FD180
:103ED000002480460998DDF858B018B3B9F10D0FE9
:103EE00044D10A2FDDE9037A08BF0C9C8A4404BB45
:103EF000D6E100BF002117E04146DDF80880621CD2
:103F00000AD0DDF858B0DDE9037A75B1CAE100BF27
:103F100041468046621CF4D154460998DDF858B0F9
:103F20000028DBD1DDE9037A0C9C002C8A4400F0E8
:103F3000B78198F8002025440A2A0A9500F0B0813C
:103F40000D2A00F0AD8118F805000A2800F0A681BE
:103F50000D2800F0A381002800F0A281781A07B292
:103F6000002F08EB05013FF7AFAE99E1DDE9037AD9
:103F7000002C8A44DDD193E10998DDF830A00130AE
:103F80000990DDF80880621CBBD1C5E7013000E074
:103F90000230002918BF0130BBF1000F00F0A181F1
:103FA0004FF6FF71ABF800100DB0BDE8F08F00BF09
:103FB00044464FF0000A0026002500BF40F21000E2
:103FC000C2F20000426800200C9020460CA99047E5
:103FD00041468046485D0C99002807950B9100F0FA
:103FE0001581CDE9037A40F2100AB8B200234FF0F0
:103FF000FF314FF000094FF0000C0025C2F2000A1B
:1040000001908B464746CDF814C009930BE000BFE2
:104010000126DDE90B0509F101090C90605D4746B9
:10402000002800F0E780DAF8042020460BA990472A
:10403000232F804606D1002EEAD0022E0AD1002678
:10404000E7E700BF012E09D1202F0CBF0226012671
:10405000DFE700BF2327012E08BF00260898394656
:10406000424615F0D3FFDDF814C001B284440029A4
:104070000699C8BF8C440FFA8CF0019A411A9142FC
:104080002946D8BF4FF0FF311BF10102A7F10A0208
:1040900018BF5946732A00F27780DFE812F0CB0090
:1040A00075007500CB007500750075007500750012
:1040B0007500750075007500750075007500750058
:1040C00075007500750075007500CB0075007500F2
:1040D000750075007500750075007500CB007500E2
:1040E0007500CB00CB00CB00750075007500750026
:1040F0007500750075007500750075007500CB00C2
:10410000CB007500750075007500750075007500B1
:1041100075007500750075007500750075007500F7
:1041200075007500750075007500750075007500E7
:1041300075007500750075007500750075007500D7
:1041400075007500CB007500CB007500750075001B
:1041500075007500750075007500750075007500B7
:1041600075007500750075007500750075007500A7
:104170007500750075007500750075007500750097
:1041800075007500CB0000BFB8F1000F09F10109FF
:1041900011D028F03F02B2F5405F00F07D80A8F515
:1041A0009C4245F2A6139A4276D34FF60172A8EBD1
:1041B00002025E2A70D37FB127F03F02B2F5405F62
:1041C0006AD0A7F59C4245F2A6139A4264D34FF6F3
:1041D0000172BA1A5D2A5FD90C9D099B4A1C08BF5F
:1041E0000346605D0B9A00280C927FF40AAF1846D4
:1041F000474602E00998474659464A1C0AD0079D9F
:10420000DDE9037ADDF858B055B34BE0079D0C9912
:10421000002025E02946B9F1000F12D00D2F19D149
:10422000DDE9037A079DDDF858B0B8F10A0F08BF41
:104230000C9915E065B94A1C0AD10021B9F1000FAB
:10424000ECD1DDE9037A079DDDF858B00C9907E061
:104250000998D2E7DDE9037A079DDDF858B000BF81
:10426000824429B3DDF808800D4498F800200A95AF
:104270000A2A15D00D2A13D018F805100A290DD0D6
:104280000D290BD061B1381A07B2012F08EB0504D4
:10429000BFF694AE04E000BF0C9DAEE701350A9571
:1042A000089C55B1BBF1000F18BFABF800A017E098
:1042B000DDF80880089C002DF4D140F21000C2F215
:1042C000000042680AA940469047BBF1000F07D0A2
:1042D00001462046002215F099FE8246ABF800A068
:1042E0000A980DB0BDE8F08F037823290CD1032B79
:1042F00024BF00207047D9004FF0010C2CFA01F2C6
:104300002CEA030109E000BF012B1CBF002070470D
:1043100020294FF0010101D10222027008467047A6
:1043200070B582B004460B46CDE900110020002193
:10433000224621F02DF8451C284619F0ADF848B169
:10434000019B29462246064621F022F8304602B05B
:1043500070BD00BFFEE700002DE9F04702B3DDF8B5
:1043600020909A4614460F46804606E064F001000D
:104370003044441C05EB0A0774B1660806FB0A7555
:1043800040462946C8470128F0DAB0F1FF3F3446DD
:10439000F2DD2846BDE8F08700252846BDE8F08715
:1043A0000020BDE8F08700002DE9F04F99B00E46DF
:1043B000229944F6C9771C469246C0F600070025AC
:1043C0001091002E18BF074604F1020B2078A94671
:1043D000002800F0FF8400BF25280FD031464A4650
:1043E000534609F10105B84701340BF1010B207860
:1043F000A9460028F0D100F0EDBC00BF109C4FF0A2
:104400000008CDE90C761BF8010CA0F12002102A5F
:1044100000F27C800121DFE802F00979790B7979DB
:1044200079797979790D790F79791100082105E089
:10443000102103E0042101E0022100BF9BF80000ED
:1044400048EA0108A0F12002102A00F2AB80012105
:10445000DFE802F00AA8A80CA8A8A8A8A8A8A80E97
:10446000A810A8A8120000BF082105E0102103E051
:10447000042101E0022100BF9BF8010048EA010885
:10448000A0F12002102A00F2C9800121DFE812F019
:104490001200C600C6001400C600C600C600C60052
:1044A000C600C600C6001600C6001800C600C6003A
:1044B0001A0000BF082105E0102103E0042101E0FB
:1044C000022100BF9BF8020048EA0108A0F1200287
:1044D000102A00F2AD800121DFE802F012AAAA142E
:1044E000AAAAAAAAAAAAAA16AA10AAAA0A0000BF39
:1044F00048EA01080BF1040B85E700BF0221F7E74A
:104500000821F5E71021F3E70421F1E7ABF10201FF
:10451000ABF1010BA0F13002D2B2092A49D80BF15C
:10452000020B002606EB8601490051FA80F11BF8C8
:10453000010CA1F13006A0F13002D2B2092A00F23A
:10454000078106EB860100EB41019BF80000A1F119
:104550003006A0F13002D2B2092A00F2FB8006EB4D
:10456000860100EB41019BF80100A1F13006A0F1AA
:104570003002D2B2092A00F2498106EB860100EB33
:1045800041019BF80200A1F13006A0F13001C9B24F
:104590000A290BF1040BC5D3ABF1020B2E2800F056
:1045A000DC801DE0ABF10101A0F13002D2B2092A9A
:1045B000B5D92A2810D154F8040B0028064648BF64
:1045C0004642002811F8020F48BF48F002088B4607
:1045D0002E2800F0C28003E000262E2800F0BD80C7
:1045E0000022A0F168014FEA7103092B0E920B968D
:1045F0003DD801214FF48072DFE803F006262A3906
:1046000039393439393400BF594611F8010F682857
:1046100040F002810221C02224E000BF59460BF184
:10462000010BA0F13002D2B2092AC2D877E700BF4D
:104630000BF101010BF1020BA0F13002D2B2092AF9
:104640007FF66DAFB5E700BF01214FF4007209E0BE
:10465000594611F8010F6C2840F0E28002214FF416
:10466000407200BF1BF8010048EA02088B44A0F129
:104670002503532B00F2DE8008216F221025DFE88E
:1046800013F0D300D900D900D900D900D900D9003E
:10469000D900D900D900D900D900D900D900D90052
:1046A000D900D900D900D900D900D900D900D90042
:1046B000D900D900D900D900D900D900D900D90032
:1046C000D900D900D900D900D900D900D900D90022
:1046D000D900D900D900D9005900D900D900D90092
:1046E000D900D900D900D9003D01D900D900D9009D
:1046F000D900D900D900D900D900D900E500E900D6
:104700005500D900D900D900D9005500D900D900E9
:10471000D900D900D90049015900D900D9000701B1
:10472000D9005500D900D9003D0100BF28F010087C
:104730000A25E3E05B4613F8011F48F48878562900
:104740004FF0100140F0D88056229B46E2E000BFB7
:10475000ABF1010B2E287FF443AF594611F8010F3E
:1047600048F48068A0F13002D2B2092A40D80BF197
:10477000020B002202EB8201490051FA80F19BF802
:104780000000A0F13002D2B2092AA1F130023FF6B6
:1047900028AF02EB820100EB41019BF80100A0F180
:1047A0003002D2B2092AA1F1300200F2738102EB89
:1047B000820100EB41019BF80200A0F13002D2B26D
:1047C000092AA1F1300200F2698102EB820100EBBB
:1047D00041019BF80300A1F13002A0F13001C9B200
:1047E0000A290BF1040BC5D3ABF1010BF9E600BFAD
:1047F0002A2807D154F8041B1BF8020F21EAE172A2
:10480000EFE600BF00228B46EBE600BF0BF1010B89
:104810002E28A2D0E4E600BF48F080088B4626E7A9
:1048200048F480788B4622E7109409F10105252091
:1048300003E000BF09F1010510940D9E0C9F314665
:104840004A465346B8470BF10104BDE502216222F6
:1048500060E000BF18F0020640F0C8810B98022803
:10486000C0F02E82DDE90C781094411C44420025F2
:104870000F9100BF09EB0502202041465346B8477F
:10488000013560190130F5D1DDE90F84A9441AE240
:10489000CDF828A054F804AB0E9E9AF800005146BB
:1048A0000028109400F03482002E08BF4FF0FF362D
:1048B000A6F1030CB21E731E043E00250AEB05048C
:1048C0006178002918BFAB4200F09481A1780029DB
:1048D00018BFAA4200F01882E178002918BFAC4541
:1048E00000F0148221792C1D11B1AE422546E5D18C
:1048F0000AEB04010BE200BF102500BF40F00801E5
:10490000582908BF48F02008642807D069280246C3
:10491000294603D028F00C0810460D465FEA48519E
:1049200048BF28F00108562816D0692801D064280D
:104930002AD15FEA885039D45FEAC8504CD45FEA84
:10494000486000F1AF80D4F800C05FEA086048BF5B
:104950000FFA8CFCA8E000BF54F8040B0D9E4168D0
:104960000C9F0D6806EB090111950368AAEB09027B
:10497000384610940095FFF717FD00EB09050BF181
:104980000104FFF721BD00BF5FEA885034D45FEA1D
:10499000C85000F197805FEA486000F12D812668D9
:1049A0005FEA086048BFB6B227E100BFE01D20F013
:1049B00007000246436852F8080B50EA030108BF9B
:1049C00028F01008CDF828A0109269BB18F4806177
:1049D0002AD01F46002257E054F804CBBCF1000F48
:1049E00008BF28F01008BCF1000F10947AD118F419
:1049F000806077D00026F2E0E01D20F007004468D8
:104A000050F8086B109056EA040008BF28F0100810
:104A10000028CDF828A040F0898018F4806000F0CC
:104A200085800022A8E000BF80EAE370B0EBE37469
:104A300008F0200083EAE37180F061001F4661EB1B
:104A4000E376F6304FF0000A0F9000BF2046314663
:104A50002A460023FBF730FC00FB154202F0FE0360
:104A60000A2B0F9B38BF3023641B76F100061344DA
:104A70000AF1010211AE06F80A3005D3BAF11F0F90
:104A8000924604460E46E1D3F80F11A9CDE9001273
:104A900076E000BF0BF1010BA3E500BF0BF1020BA9
:104AA0009FE500BF94F800C0BCF1000F08BF28F0DC
:104AB0001008BCF1000F10946CD118F4806069D01C
:104AC000002689E054F8046B002E08BF28F0100877
:104AD000002E109440F09C8018F4806000F09880C4
:104AE0000023B1E008F0200181F06101604601F18E
:104AF000F60E0023BCF1000F48BFCCF1000000BF50
:104B0000B0FBF5F1724601FB150606F0FE040A2C17
:104B100038BF302232445E1CA84211A8C2545ED372
:104B20001F2B33460846EBD359E000BF08F02000A6
:104B300080F0610000F1F6074FF0000A3046214690
:104B40002A460023FBF7B8FB00FB156202F0FE03C8
:104B50000A2B3B4638BF3023761B74F10006134402
:104B60000AF1010211AE06F80A3005D3BAF11F0F9F
:104B7000924606460C46E1D311A8CDE9000200207A
:104B8000CDE902050E980C9F04900B980D9EDDF860
:104B900028A087E008F0200181F06101604601F162
:104BA000F60E0022BCF1000F48BFCCF1000000BFA0
:104BB000B0FBF5F1734601FB150606F0FE040A2C66
:104BC00038BF30233344561CA84211A8835403D362
:104BD0001F2A32460846EBD310980430109011A9D2
:104BE0004FEADC70CDE9001655E000BF0C9F4FF096
:104BF000010868E0611C8AE02678002E08BF28F0D2
:104C00001008109426BB18F4806021D000223BE0ED
:104C100008F0200080F0610000F1F60C002200BFD7
:104C2000B6FBF5F0614600FB156303F0FE040A2CA9
:104C300038BF30211944531CAE4211AEB15403D3D6
:104C40001F2A1A460646EBD311A8CDE9000321E03E
:104C500008F0200080F0610000F1F60C002300BF96
:104C6000B6FBF5F0614600FB156202F0FE040A2C6B
:104C700038BF302111445A1CAE4211AEF15403D357
:104C80001F2B13460646EBD310980430109011A842
:104C9000CDE900020020CDE902050E980C9F04909A
:104CA0000B980D9E0590384631464A465346CDF83E
:104CB000188000F09DF805460BF10104FFF784BB56
:104CC0000C9F4FF0020814F8040B0D994A46534606
:104CD00009F10105B847109486B10B9880450DD2B3
:104CE0000D9EA0EB080400BF2A4620203146534603
:104CF0000135B847013CF7D1A5E500BF0D9E0BF18A
:104D00000104FFF761BB00BFA11C00E0E11C0E9E87
:104D1000A1EB0A0208F48063B242314638BF114663
:104D2000002B0F9308BF114618F002081DD10B9AF3
:104D3000914219D2CDF82080DDF82880DDE90C768B
:104D4000501C551A0024099009EB0402202031461A
:104D50004346B8470134A542F6D19AF80000DDF881
:104D60002080A14404E000BF0131DDE90C76099107
:104D7000C0B10AF10104DDF828A00CE001390E9160
:104D8000C0B231464A46534609F10105B84714F806
:104D9000010BA94648B10F990029F1D00E990029BD
:104DA000ECD101E0DDF828A04D46B8F1000F3FF44A
:104DB0004AAD0B9809998142BFF445AD441A00BF32
:104DC0002A462020314653460135B847013CF7D1E9
:104DD00039E500BF4A46002031465346D14528BF39
:104DE000AAF10102B847484619B0BDE8F08F0000AB
:104DF0002DE9F04F83B0129D0DF1300C1E46DDE918
:104E000010789CE808188A46814615F00200CDE922
:104E1000010241D1B8F1000F0AD0E8070AD015F01D
:104E20000C0018BF012040EA0C00A8EB000801E0CC
:104E30004FF00008BB4515D2BBF11F0F12D86FEA27
:104E40000B013944CBF11F02914238BF0A46541C72
:104E500003EB0B0021463022FBF7A6FADDF838C041
:104E60000C9BA344E80717D0C34515D2BBF11F0F15
:104E700012D86FEA0B014144CBF11F02914238BFB7
:104E80000A46541C03EB0B0021463022FBF78CFA38
:104E9000DDF838C00C9BA344E80636D50F986905A9
:104EA00010D4BBF1000F0DD0BB4518BFC34509D1CD
:104EB000BBF101010A4618BFABF10202102818BF6E
:104EC0000A469346102807D115F020000CD1BBF1FB
:104ED000200F09D278200CE002280ED1BBF11F0F61
:104EE0000BD8622005E000BF38B1BBF1200F04D21F
:104EF000582003F80B000BF1010BBBF11F0F18D862
:104F0000302003F80B000BF1010BBBF11F0F10D881
:104F1000BCF1000F02D02D2007E000BF680703D4CA
:104F2000280706D5202000E02B2003F80B000BF10A
:104F3000010B029AA80714460CD1C345144609D2A6
:104F4000A8EB0B07202051463346541CC847013FAD
:104F50002246F7D1BBF1000FCDF8008012D00C989B
:104F6000A0F1010818F80B00514622463346ABF178
:104F70000105671CC847002D3C46AB46F2D101989D
:104F800018B917E027460198A0B10299DDF8008012
:104F9000781A40450ED24D42202051463A463346BB
:104FA0007C1CC847281940452746F5D3204603B046
:104FB000BDE8F08F3C46204603B0BDE8F08F00000E
:104FC0009A4238BF88547047704700002DE9F04777
:104FD00040F27077C2F20007787880F001007870B4
:104FE00040F2C870C2F20000FEF7FCFA002808BFC9
:104FF000BDE8F08740F2C87405464FF00008C2F2E1
:1050000000044FF6FF794FF0010A07E020462946D9
:10501000FEF7EEFA0546002800F0A480686C1FF049
:105020006BFB06461FF080FB686495F848007978B2
:10503000C0F340028A4287F8008063D000F0FD028E
:1050400042EA4101400785F848101CD4286B00282B
:1050500019DC801917D495F84200C00709D1696995
:1050600039B128468847296AAA6A0144104429624E
:10507000A862A96809B12846884795F8480040F019
:10508000040085F84800286B801928633AD4E96A3F
:105090008842C8BF2963E969284688476A6A9042FE
:1050A00005D06A68014668620AB128689047D5E968
:1050B0000B01814226DB95F84810B5F8403011F01D
:1050C000010205D123B14B451CBF013BA5F840307F
:1050D0001B0407D0D5E90E3676422E6393B122B178
:1050E00006E000BFAB6BCBB1C2B96A6B52422A6318
:1050F00081F0010185F84810A96A2A6A2962C5E988
:105100000A23A863387801287FF480AF2046FEF791
:1051100069FA054600287FF481AF23E0204629463E
:10512000FEF7B0FA204687F800A0FEF75BFA0146CA
:10513000786889B11FF042FCE96809B128468847C0
:10514000296909B128468847284614F0B1FF387804
:1051500001287FF45BAFD9E71FF020FCE968002944
:10516000ECD1EDE7BDE8F087B0B5044640680D46E8
:1051700010B12946FFF7F8FF2268002A08BFB0BD2A
:1051800020462946BDE8B0401047000070B50E68C3
:105190000C463168054639B1B07EC00604D52160A1
:1051A00028462146FFF7F2FF284621462660BDE843
:1051B0007040FFF7D9BF000089B206F04BB800007D
:1051C0002DE9F04F95B040F6700BC2F2000B40F69F
:1051D000CC3A08240BF12800C0F6040A0DF10809A6
:1051E0000190A1E081B200EBD13000B2411006295C
:1051F0004FF00601C8BF4110DBF810304FF0060237
:10520000B8BF42105AF82300891AB0FBF1F505FB2C
:105210001100591C10443F2988BF0021CBF8101001
:105220000FFA88F102B238461DF022FE0199384685
:105230004FF4003218F08AFDDBF8100040F2011341
:105240005AF82010C1F200030A09A2FB03231A0C2A
:105250001205A2EB13420130A1EB02113F2888BFD7
:1052600000204FF4FC624FF6FF78CBF810004FF4AB
:10527000784002EA511226EA080300EA11201A4493
:10528000C1F3C40110444618384631464FF4003289
:105290001DF0B8FF3846002106F046F8DBF8100094
:1052A00048F21F525AF82010C5F2EB12A1FB02235C
:1052B0009A09C823013002FB13113F2888BF002040
:1052C000CBF81000484601F1320505F0D1FBDBF8C0
:1052D00010004DF249625AF82010CFF2B922A1FB1A
:1052E00002231A0A4FF4877302FB131145F2B91215
:1052F000C0F600020130029703923F2888BF0020C9
:10530000CBF8100040F267101E31CDE90C0548467D
:10531000CDE90A111095ADF8488005F007FC384634
:1053200002F08AF9013C3BD0DBF8040005F07EFC7A
:1053300007461DF0B3FA09F0DBF909F0FDF920F09A
:1053400001010C2902D14FF006081EE081B200EBEA
:10535000D13000B2411006294FF00601C8BF4110FC
:10536000DBF810304FF00602B8BF42105AF82300A5
:10537000891AB0FBF1F505FB110000EB0208581C7F
:105380003F2888BF0020CBF8100009F0B1F909F0E0
:10539000D3F920F001010C297FF424AF06203FE768
:1053A00015B0BDE8F08F000010B540F67000C2F2F5
:1053B000000000F1280420461EF0F0FB20460D21DD
:1053C0001EF006FC40F20800C2F2000000787F21C7
:1053D0000028204608BFFF211EF0F6FBBDE8104064
:1053E000FFF7EEBE10B540F67000C2F2000000F10B
:1053F000280420461EF0D2FB204602211EF0E8FBC6
:1054000040F20800C2F2000000787F210028204608
:1054100008BFFF211EF0D8FBBDE81040FFF7D0BE4B
:1054200080B514F0CDFB2F2818BF80BD1FF07CF98C
:1054300040F67001C2F20001486280BDF0B581B053
:1054400009F056F945F22141C0F60001002200237F
:105450000446002609F070F8206A40F67007C2F290
:1054600000077861387847F2ED41C0F60001022864
:1054700021620ED1D4F8A40120B10168B9610221E2
:105480001FF0A8FA05F0EEFA0168F96102211FF099
:10549000A1FA09F02DF909F09FF904461DF0FEF973
:1054A0002046FF2100221DF0B9FE204616F01EFD09
:1054B00004210422F8601DF09BFC41F2BD05F86850
:1054C000C0F60405294617F0CBFC204616F00EFD69
:1054D000F9680D2200233862009618F049FD386AF9
:1054E000294617F0BDFC204619F0F0FC78601DF04D
:1054F000D5F97D6820461BF0F9FB064620461AF0D8
:1055000067FB396A498B401A043802B22846314693
:105510001DF0AEFC786805210022002318F0FCFC89
:1055200007F128001EF0F4F9204601B0BDE8F04074
:105530001DF036BFB0B5002942D080290B460BD3F1
:10554000B1FA81F2C2F11A024FF0FF3303FA02F20C
:10555000D24353187F2B35D89A08002300EB8305DC
:10556000D5F814C04FF0FF3505FA02F212EA0C022A
:1055700012D092FAA2F2B2FA82FE00EBC31202EB50
:105580008E0454F83C2FDAB1556825F003058D429E
:1055900028D200BFFEE700BF0269013305FA03F31A
:1055A0001A400DD092FAA2F2B2FA82F300EB830213
:1055B000D2F814C0BCF1000F6246DAD1FEE700BF9A
:1055C0000020B0BD0022B2EB134F25D1B3FA83F512
:1055D000C5F11A0223FA02F282F02002C5F1190382
:1055E000BCE700BFD568CDB19168C9B1CD60A960F5
:1055F0002568954210D1814221600DD1012101FA27
:105600000EF52CEA050500EB8304656125B90569F3
:10561000994025EA010101611046B0BDFEE700BFD7
:10562000FEE70000F0B54A68032A09D922F0030317
:105630000A1D9B1806D05D68EC0705D10846F0BD31
:10564000FEE700BFFEE700BF25F003047F2C3BD838
:105650004FEA950E4FF0000CDD68002D42D09C689B
:1056600064B3E560AC6000EBCC1505EB8E0555F836
:105670003C6F9E4211D184422C600ED100EB8C0510
:1056800001276E6907FA0EF4A6436E612EB906690A
:1056900007FA0CF726EA07070761486803280FD9BD
:1056A0005B6823F00303184404300328486009D9D9
:1056B00020F0030081500846F0BD00BFFEE700BFA8
:1056C000FEE700BFFEE700BFB4FA84FCCCF11A0588
:1056D00024FA05F585F0200ECCF1190CDD68002DBB
:1056E000BDD100BFFEE7000070B539B122B14B68F3
:1056F000DC0705D1FEE700BFFEE700BF002070BD5C
:1057000023F0030502F11004A5420FD2032B40F24F
:105710007F8023F0030201F10800835823F0020385
:1057200083504A6822F001024A6070BD01F1040C06
:105730000CEB020E0EF10B040EF1080324F003042F
:10574000A34201D0FEE700BFAC1ADEF80450043CCF
:1057500005F003052C430B2CCEF804402AD94C68E5
:1057600004F0030422434A60DEF80420032A23D90C
:1057700022F003055A5942F002025A51DEF8042081
:105780002B4442F00104CEF804404C6843F804EC8A
:10579000032C13D924F0030343F80C1022F0030365
:1057A00042F003057F2BCEF8045009D84FEA920C43
:1057B00000230EE0FEE700BFFEE700BFFEE700BFEC
:1057C000B3FA83F2C2F11A05EB4083F0200CC2F168
:1057D000190300EBC31202EB8C0252F83C4FCCB120
:1057E000CEE90240C4F80CE00124056904FA03F68E
:1057F0003543056100EB8300436904FA0CF633433B
:1058000043614B68C2F800E0032B3FF682AF00BF54
:10581000FEE700BFFEE7000010B540F67000C2F2E0
:10582000000000F1280420461EF0B8F920460321AC
:105830001EF0E2F940F20800C2F2000000787F2179
:105840000028204608BFFF211EF0CEF9BDE8104019
:1058500020F03EB810B540F67000C2F2000000F132
:10586000280420461EF09AF9204647F6FF711EF0E4
:10587000BFFA204603211EF0BFF940F20800C2F231
:10588000000000787F210028204608BFFF211EF07D
:10589000ABF9BDE8104020F01BB8000010B540F691
:1058A0007000C2F2000000F1280420461EF076F9D4
:1058B000204608211EF09CFA204603211EF09CF988
:1058C00040F20800C2F2000000787F210028204644
:1058D00008BFFF211EF088F9204604211EF088F938
:1058E000BDE810401FF0F4BF10B540F67000C2F2E2
:1058F000000000F1280420461EF050F9204608213F
:105900001EF076FA204603211EF076F940F20800D8
:10591000C2F2000000787F210028204608BFFF2146
:105920001EF062F920460C211EF062F9BDE810401D
:105930001FF0CEBF10B540F67000C2F2000000F1BB
:10594000280420461EF02AF9204608211EF050FAAD
:10595000204603211EF050F940F20800C2F2000078
:1059600000787F210028204608BFFF211EF03CF967
:10597000BDE810401FF0ACBF10B540F67000C2F299
:10598000000000F1280420461EF008F920460821F6
:105990001EF02EFA204603211EF02EF940F20800D8
:1059A000C2F2000000787F210028204608BFFF21B6
:1059B0001EF01AF9204603211EF01AF9BDE8104026
:1059C0001FF086BF10B540F67000C2F2000000F173
:1059D000280420461EF0E2F8204608211EF008FAAE
:1059E000204603211EF008F940F20800C2F2000030
:1059F00000787F210028204608BFFF211EF0F4F820
:105A0000204602211EF0F4F8BDE810401FF060BFF0
:105A100010B540F67000C2F2000000F128042046E4
:105A20001EF0BCF8204608211EF0E2F920460321B2
:105A30001EF0E2F840F20800C2F2000000787F2178
:105A40000028204608BFFF211EF0CEF82046062180
:105A50001EF0CEF8BDE810401FF03ABF2DE9F04F20
:105A600091B0934682460E91C8784BF2B5414BF205
:105A7000C142C0F60001C0F600020C9310F0010014
:105A800008BF0A464BF2594105924BF23142C0F62B
:105A90000001C0F600020B4608BF13460B93002816
:105AA00008BF0A4640F6A901C0F60201099240F675
:105AB000C1020B46C0F6020208BF1346002840F69A
:105AC000B5001E9DC0F602000A9340F69D0308BF74
:105AD0000A460146C0F60203089208BF1946D5F8E7
